:100000000C942A000C9421010C94D6000C943C0012
:100010000C943C000C943C000C943C000C943C0070
:100020000C943C000C9474000C943C000C94A500BF
:100030000C943C000C943C000C943C000C943C0050
:100040000C943C000C943C000C943C000C943C0040
:100050000C943C0011241FBECFE5D8E0DEBFCDBF1D
:1000600010E0A0E6B0E001C01D92A437B107E1F7AF
:100070000E9496010C94F9010C940000D09AD19A38
:10008000D29AD39A0895D89AD99A0895D89AD99A93
:100090000895D89AD99A0895D89AD99A0895D9984E
:1000A000D89A0895D99AD898089585B7846085BF5D
:1000B0008BB780688BBF089585B7816085BF8BB78C
:1000C00080648BBF08958EB581608EBD1DBC1CBC45
:1000D00089B7846089BF089583B7816083BF12BEEA
:1000E00089B7816089BF08951F920F920FB60F9252
:1000F00011242F933F938F939F9320916800309109
:10010000690021303105C1F480916400909165004F
:10011000019690936500809364008C35910564F09E
:1001200010926300109262001092690010926800B1
:1001300030936B0020936A009F918F913F912F9194
:100140000F900FBE0F901F9018951F920F920FB631
:100150000F9211242F933F938F939F9320916E00C2
:1001600030916F0021303105C1F480916000909191
:100170006100019690936100809360008C35910539
:1001800064F0109271001092700010926F00109243
:100190006E0030936700209366009F918F913F918E
:1001A0002F910F900FBE0F901F9018951F920F92D6
:1001B0000FB60F9211242F933F935F936F937F930A
:1001C0008F939F93AF93BF93209162003091630010
:1001D0002130310541F58091680090916900892BAB
:1001E00059F430936900209368001DBC1CBC109228
:1001F00065001092640017C01092690010926800A8
:100200002CB53DB59091640080E0820F931F6AE3A6
:1002100070E00E94D20170936D0060936C001092A8
:10022000630010926200BF91AF919F918F917F9177
:100230006F915F913F912F910F900FBE0F901F9084
:1002400018951F920F920FB60F9211242F933F9380
:100250005F936F937F938F939F93AF93BF932091FF
:100260007000309171002130310531F580916E00C0
:1002700090916F00892B51F430936F0020936E00A2
:1002800012BE109261001092600016C010926F00B2
:1002900010926E0022B79091600080E0820F911D55
:1002A0006AE370E00E94E60170937300609372004D
:1002B0001092710010927000BF91AF919F918F9139
:1002C0007F916F915F913F912F910F900FBE0F9093
:1002D0001F9018958091620090916300892B79F4AA
:1002E000C19A85E38A95F1F7C19881E090E09093F7
:1002F00063008093620010926B0010926A00089570
:100300008091700090917100892B79F4C09A85E3F7
:100310008A95F1F7C09881E090E090937100809306
:1003200070001092670010926600089585B784608F
:1003300085BF8BB780688BBF85B7816085BF8BB762
:1003400080648BBF83B7816083BF12BE89B7816031
:1003500089BF8EB581608EBD1DBC1CBC89B7846011
:1003600089BF0E943E008B98B99AB89ABC9ABD9AF0
:1003700078940E946A010E94800180916C009091A3
:100380006D00893C91053CF4C49AD998D89AC59AD5
:10039000D99AD898EECFC498D89AD99AC598D89AAD
:1003A000D99AE7CFAA1BBB1B51E107C0AA1FBB1FED
:1003B000A617B70710F0A61BB70B881F991F5A95F1
:1003C000A9F780959095BC01CD01089597FB092E62
:1003D00007260AD077FD04D0E5DF06D000201AF406
:1003E000709561957F4F0895F6F7909581959F4F91
:0603F0000895F894FFCF10
:00000001FF
